{
  "contractName": "FingerVeinAuth",
  "abi": [
    {
      "inputs": [
        {
          "internalType": "string",
          "name": "",
          "type": "string"
        }
      ],
      "name": "biometricTemplates",
      "outputs": [
        {
          "internalType": "bytes",
          "name": "encryptedTemplate",
          "type": "bytes"
        },
        {
          "internalType": "address",
          "name": "owner",
          "type": "address"
        }
      ],
      "stateMutability": "view",
      "type": "function",
      "constant": true
    },
    {
      "inputs": [
        {
          "internalType": "string",
          "name": "uid",
          "type": "string"
        },
        {
          "internalType": "bytes",
          "name": "encryptedTemplate",
          "type": "bytes"
        }
      ],
      "name": "enrollUser",
      "outputs": [],
      "stateMutability": "nonpayable",
      "type": "function"
    },
    {
      "inputs": [
        {
          "internalType": "string",
          "name": "uid",
          "type": "string"
        },
        {
          "internalType": "bytes",
          "name": "queryTemplate",
          "type": "bytes"
        }
      ],
      "name": "authenticateUser",
      "outputs": [
        {
          "internalType": "bool",
          "name": "",
          "type": "bool"
        }
      ],
      "stateMutability": "view",
      "type": "function",
      "constant": true
    }
  ],
  "bytecode": "0x608060405234801561001057600080fd5b50610aa6806100206000396000f3fe608060405234801561001057600080fd5b50600436106100415760003560e01c80633b534796146100465780639120ba6214610076578063eff8929f14610092575b600080fd5b610060600480360381019061005b9190610665565b6100c3565b60405161006d91906107f0565b60405180910390f35b610090600480360381019061008b9190610665565b61026b565b005b6100ac60048036038101906100a79190610624565b6103cf565b6040516100ba92919061080b565b60405180910390f35b6000806000846040516100d691906107d9565b90815260200160405180910390206040518060400160405290816000820180546100ff906109cf565b80601f016020809104026020016040519081016040528092919081815260200182805461012b906109cf565b80156101785780601f1061014d57610100808354040283529160200191610178565b820191906000526020600020905b81548152906001019060200180831161015b57829003601f168201915b505050505081526020016001820160009054906101000a900473ffffffffffffffffffffffffffffffffffffffff1673ffffffffffffffffffffffffffffffffffffffff1673ffffffffffffffffffffffffffffffffffffffff16815250509050600073ffffffffffffffffffffffffffffffffffffffff16816020015173ffffffffffffffffffffffffffffffffffffffff16141561024d576040517f08c379a00000000000000000000000000000000000000000000000000000000081526004016102449061083b565b60405180910390fd5b82805190602001208160000151805190602001201491505092915050565b600073ffffffffffffffffffffffffffffffffffffffff1660008360405161029391906107d9565b908152602001604051809103902060010160009054906101000a900473ffffffffffffffffffffffffffffffffffffffff1673ffffffffffffffffffffffffffffffffffffffff161461031b576040517f08c379a00000000000000000000000000000000000000000000000000000000081526004016103129061085b565b60405180910390fd5b60405180604001604052808281526020013373ffffffffffffffffffffffffffffffffffffffff1681525060008360405161035691906107d9565b908152602001604051809103902060008201518160000190805190602001906103809291906104b1565b5060208201518160010160006101000a81548173ffffffffffffffffffffffffffffffffffffffff021916908373ffffffffffffffffffffffffffffffffffffffff1602179055509050505050565b600081805160208101820180518482526020830160208501208183528095505050505050600091509050806000018054610408906109cf565b80601f0160208091040260200160405190810160405280929190818152602001828054610434906109cf565b80156104815780601f1061045657610100808354040283529160200191610481565b820191906000526020600020905b81548152906001019060200180831161046457829003601f168201915b5050505050908060010160009054906101000a900473ffffffffffffffffffffffffffffffffffffffff16905082565b8280546104bd906109cf565b90600052602060002090601f0160209004810192826104df5760008555610526565b82601f106104f857805160ff1916838001178555610526565b82800160010185558215610526579182015b8281111561052557825182559160200191906001019061050a565b5b5090506105339190610537565b5090565b5b80821115610550576000816000905550600101610538565b5090565b6000610567610562846108ac565b61087b565b90508281526020810184848401111561057f57600080fd5b61058a84828561098d565b509392505050565b60006105a56105a0846108dc565b61087b565b9050828152602081018484840111156105bd57600080fd5b6105c884828561098d565b509392505050565b600082601f8301126105e157600080fd5b81356105f1848260208601610554565b91505092915050565b600082601f83011261060b57600080fd5b813561061b848260208601610592565b91505092915050565b60006020828403121561063657600080fd5b600082013567ffffffffffffffff81111561065057600080fd5b61065c848285016105fa565b91505092915050565b6000806040838503121561067857600080fd5b600083013567ffffffffffffffff81111561069257600080fd5b61069e858286016105fa565b925050602083013567ffffffffffffffff8111156106bb57600080fd5b6106c7858286016105d0565b9150509250929050565b6106da8161094f565b82525050565b6106e981610961565b82525050565b60006106fa8261090c565b6107048185610922565b935061071481856020860161099c565b61071d81610a5f565b840191505092915050565b600061073382610917565b61073d8185610944565b935061074d81856020860161099c565b80840191505092915050565b6000610766601183610933565b91507f55736572206e6f7420656e726f6c6c65640000000000000000000000000000006000830152602082019050919050565b60006107a6601583610933565b91507f5573657220616c726561647920656e726f6c6c656400000000000000000000006000830152602082019050919050565b60006107e58284610728565b915081905092915050565b600060208201905061080560008301846106e0565b92915050565b6000604082019050818103600083015261082581856106ef565b905061083460208301846106d1565b9392505050565b6000602082019050818103600083015261085481610759565b9050919050565b6000602082019050818103600083015261087481610799565b9050919050565b6000604051905081810181811067ffffffffffffffff821117156108a2576108a1610a30565b5b8060405250919050565b600067ffffffffffffffff8211156108c7576108c6610a30565b5b601f19601f8301169050602081019050919050565b600067ffffffffffffffff8211156108f7576108f6610a30565b5b601f19601f8301169050602081019050919050565b600081519050919050565b600081519050919050565b600082825260208201905092915050565b600082825260208201905092915050565b600081905092915050565b600061095a8261096d565b9050919050565b60008115159050919050565b600073ffffffffffffffffffffffffffffffffffffffff82169050919050565b82818337600083830152505050565b60005b838110156109ba57808201518184015260208101905061099f565b838111156109c9576000848401525b50505050565b600060028204905060018216806109e757607f821691505b602082108114156109fb576109fa610a01565b5b50919050565b7f4e487b7100000000000000000000000000000000000000000000000000000000600052602260045260246000fd5b7f4e487b7100000000000000000000000000000000000000000000000000000000600052604160045260246000fd5b6000601f19601f830116905091905056fea2646970667358221220116971aeba14d4b9ce95e461e52f796022514fa7fe19c81c95260983b9abaeba64736f6c63430008000033",
  "immutableReferences": {},
  "source": "// SPDX-License-Identifier: MIT\r\npragma solidity ^0.8.0;\r\n\r\ncontract FingerVeinAuth {\r\n    struct BiometricData {\r\n        bytes encryptedTemplate;\r\n        address owner;\r\n    }\r\n\r\n    // Mapping to store biometric data by UID (instead of using msg.sender)\r\n    mapping(string => BiometricData) public biometricTemplates;\r\n\r\n    // Store user data for enrollment, using UID as key\r\n    function enrollUser(string memory uid, bytes memory encryptedTemplate) public {\r\n        // Check if the user is already enrolled with the same UID\r\n        require(biometricTemplates[uid].owner == address(0), \"User already enrolled\");\r\n        \r\n        // Store the encrypted template under the provided UID\r\n        biometricTemplates[uid] = BiometricData(encryptedTemplate, msg.sender);\r\n    }\r\n\r\n    // Authenticate user by comparing provided query template with stored template\r\n    function authenticateUser(string memory uid, bytes memory queryTemplate) public view returns (bool) {\r\n        // Retrieve the stored template using the provided UID\r\n        BiometricData memory userTemplate = biometricTemplates[uid];\r\n        \r\n        // Ensure the user is enrolled with the given UID\r\n        require(userTemplate.owner != address(0), \"User not enrolled\");\r\n\r\n        // Compare the query template with the stored encrypted template\r\n        return keccak256(userTemplate.encryptedTemplate) == keccak256(queryTemplate);\r\n    }\r\n}\r\n",
  "sourcePath": "C:\\Users\\hp\\Desktop\\fingers\\EchoContractProject\\contracts\\FingerVeinAuth.sol",
  "compiler": {
    "name": "solc",
    "version": "0.8.0+commit.c7dfd78e.Emscripten.clang"
  },
  "schemaVersion": "3.4.16",
  "updatedAt": "2025-01-12T13:02:39.129Z",
  "networkType": "ethereum",
  "devdoc": {
    "kind": "dev",
    "methods": {},
    "version": 1
  },
  "userdoc": {
    "kind": "user",
    "methods": {},
    "version": 1
  }
}