{
  "contractName": "FingerVeinAuth",
  "abi": [
    {
      "anonymous": false,
      "inputs": [
        {
          "indexed": false,
          "internalType": "string",
          "name": "uid",
          "type": "string"
        },
        {
          "indexed": false,
          "internalType": "bool",
          "name": "exists",
          "type": "bool"
        },
        {
          "indexed": false,
          "internalType": "bytes",
          "name": "featureVector",
          "type": "bytes"
        }
      ],
      "name": "UserAuthenticated",
      "type": "event"
    },
    {
      "anonymous": false,
      "inputs": [
        {
          "indexed": false,
          "internalType": "string",
          "name": "uid",
          "type": "string"
        },
        {
          "indexed": true,
          "internalType": "address",
          "name": "owner",
          "type": "address"
        }
      ],
      "name": "UserEnrolled",
      "type": "event"
    },
    {
      "inputs": [
        {
          "internalType": "string",
          "name": "",
          "type": "string"
        }
      ],
      "name": "biometricTemplates",
      "outputs": [
        {
          "internalType": "string",
          "name": "encryptedFeatureVector",
          "type": "string"
        },
        {
          "internalType": "address",
          "name": "owner",
          "type": "address"
        }
      ],
      "stateMutability": "view",
      "type": "function",
      "constant": true
    },
    {
      "inputs": [
        {
          "internalType": "string",
          "name": "uid",
          "type": "string"
        },
        {
          "internalType": "string",
          "name": "encryptedFeatureVector",
          "type": "string"
        }
      ],
      "name": "enrollUser",
      "outputs": [],
      "stateMutability": "nonpayable",
      "type": "function"
    },
    {
      "inputs": [
        {
          "internalType": "string",
          "name": "uid",
          "type": "string"
        }
      ],
      "name": "authenticateUser",
      "outputs": [
        {
          "internalType": "bool",
          "name": "",
          "type": "bool"
        },
        {
          "internalType": "string",
          "name": "",
          "type": "string"
        }
      ],
      "stateMutability": "view",
      "type": "function",
      "constant": true
    }
  ],
  "bytecode": "0x608060405234801561001057600080fd5b506109ef806100206000396000f3fe608060405234801561001057600080fd5b50600436106100415760003560e01c80631f919e8d14610046578063e62a6d7814610077578063eff8929f14610093575b600080fd5b610060600480360381019061005b91906105e2565b6100c4565b60405161006e92919061076e565b60405180910390f35b610091600480360381019061008c9190610623565b610243565b005b6100ad60048036038101906100a891906105e2565b6103f5565b6040516100bb9291906107c0565b60405180910390f35b60006060600080846040516100d99190610757565b908152602001604051809103902060405180604001604052908160008201805461010290610918565b80601f016020809104026020016040519081016040528092919081815260200182805461012e90610918565b801561017b5780601f106101505761010080835404028352916020019161017b565b820191906000526020600020905b81548152906001019060200180831161015e57829003601f168201915b505050505081526020016001820160009054906101000a900473ffffffffffffffffffffffffffffffffffffffff1673ffffffffffffffffffffffffffffffffffffffff1673ffffffffffffffffffffffffffffffffffffffff16815250509050600073ffffffffffffffffffffffffffffffffffffffff16816020015173ffffffffffffffffffffffffffffffffffffffff16141561023157600060405180602001604052806000815250925092505061023e565b6001816000015192509250505b915091565b600073ffffffffffffffffffffffffffffffffffffffff1660008360405161026b9190610757565b908152602001604051809103902060010160009054906101000a900473ffffffffffffffffffffffffffffffffffffffff1673ffffffffffffffffffffffffffffffffffffffff16146102f3576040517f08c379a00000000000000000000000000000000000000000000000000000000081526004016102ea906107f0565b60405180910390fd5b60405180604001604052808281526020013373ffffffffffffffffffffffffffffffffffffffff1681525060008360405161032e9190610757565b908152602001604051809103902060008201518160000190805190602001906103589291906104d7565b5060208201518160010160006101000a81548173ffffffffffffffffffffffffffffffffffffffff021916908373ffffffffffffffffffffffffffffffffffffffff1602179055509050503373ffffffffffffffffffffffffffffffffffffffff167ff0ec6972035aae8a4ffc149b3a4d137987252b18ec248c4bc4d7ab96b263c002836040516103e9919061079e565b60405180910390a25050565b60008180516020810182018051848252602083016020850120818352809550505050505060009150905080600001805461042e90610918565b80601f016020809104026020016040519081016040528092919081815260200182805461045a90610918565b80156104a75780601f1061047c576101008083540402835291602001916104a7565b820191906000526020600020905b81548152906001019060200180831161048a57829003601f168201915b5050505050908060010160009054906101000a900473ffffffffffffffffffffffffffffffffffffffff16905082565b8280546104e390610918565b90600052602060002090601f016020900481019282610505576000855561054c565b82601f1061051e57805160ff191683800117855561054c565b8280016001018555821561054c579182015b8281111561054b578251825591602001919060010190610530565b5b509050610559919061055d565b5090565b5b8082111561057657600081600090555060010161055e565b5090565b600061058d61058884610841565b610810565b9050828152602081018484840111156105a557600080fd5b6105b08482856108d6565b509392505050565b600082601f8301126105c957600080fd5b81356105d984826020860161057a565b91505092915050565b6000602082840312156105f457600080fd5b600082013567ffffffffffffffff81111561060e57600080fd5b61061a848285016105b8565b91505092915050565b6000806040838503121561063657600080fd5b600083013567ffffffffffffffff81111561065057600080fd5b61065c858286016105b8565b925050602083013567ffffffffffffffff81111561067957600080fd5b610685858286016105b8565b9150509250929050565b61069881610898565b82525050565b6106a7816108aa565b82525050565b60006106b882610871565b6106c2818561087c565b93506106d28185602086016108e5565b6106db816109a8565b840191505092915050565b60006106f182610871565b6106fb818561088d565b935061070b8185602086016108e5565b80840191505092915050565b600061072460158361087c565b91507f5573657220616c726561647920656e726f6c6c656400000000000000000000006000830152602082019050919050565b600061076382846106e6565b915081905092915050565b6000604082019050610783600083018561069e565b818103602083015261079581846106ad565b90509392505050565b600060208201905081810360008301526107b881846106ad565b905092915050565b600060408201905081810360008301526107da81856106ad565b90506107e9602083018461068f565b9392505050565b6000602082019050818103600083015261080981610717565b9050919050565b6000604051905081810181811067ffffffffffffffff8211171561083757610836610979565b5b8060405250919050565b600067ffffffffffffffff82111561085c5761085b610979565b5b601f19601f8301169050602081019050919050565b600081519050919050565b600082825260208201905092915050565b600081905092915050565b60006108a3826108b6565b9050919050565b60008115159050919050565b600073ffffffffffffffffffffffffffffffffffffffff82169050919050565b82818337600083830152505050565b60005b838110156109035780820151818401526020810190506108e8565b83811115610912576000848401525b50505050565b6000600282049050600182168061093057607f821691505b602082108114156109445761094361094a565b5b50919050565b7f4e487b7100000000000000000000000000000000000000000000000000000000600052602260045260246000fd5b7f4e487b7100000000000000000000000000000000000000000000000000000000600052604160045260246000fd5b6000601f19601f830116905091905056fea264697066735822122029ae1eccc85f11bdf1de686e2cfc1210dec588041e6527f582f94e89eda4956364736f6c63430008000033",
  "immutableReferences": {},
  "source": "// SPDX-License-Identifier: MIT\npragma solidity ^0.8.0;\n\ncontract FingerVeinAuth {\n    struct BiometricData {\n        string encryptedFeatureVector;\n        address owner;\n    }\n\n    mapping(string => BiometricData) public biometricTemplates;\n\n    event UserEnrolled(string uid, address indexed owner);\n    event UserAuthenticated(string uid, bool exists, bytes featureVector);\n\n    function enrollUser(string memory uid, string memory encryptedFeatureVector) public {\n        require(biometricTemplates[uid].owner == address(0), \"User already enrolled\");\n        biometricTemplates[uid] = BiometricData(encryptedFeatureVector, msg.sender);\n        emit UserEnrolled(uid, msg.sender);\n    }\n\n    function authenticateUser(string memory uid) public view returns (bool, string memory) {\n        BiometricData memory storedData = biometricTemplates[uid];\n        if (storedData.owner == address(0)) {\n            return (false, \"\");\n        }\n        return (true, storedData.encryptedFeatureVector);\n    }\n}\n",
  "sourcePath": "/Users/hp/Desktop/s8 proj/VeinChain/contracts/FingerVeinAuth.sol",
  "compiler": {
    "name": "solc",
    "version": "0.8.0+commit.c7dfd78e.Emscripten.clang"
  },
  "schemaVersion": "3.4.16",
  "updatedAt": "2025-04-03T16:33:47.575Z",
  "networkType": "ethereum",
  "devdoc": {
    "kind": "dev",
    "methods": {},
    "version": 1
  },
  "userdoc": {
    "kind": "user",
    "methods": {},
    "version": 1
  }
}